{
  "_format": "hh-sol-artifact-1",
  "contractName": "RobotsCB",
  "sourceName": "contracts/RobotsCB.sol",
  "abi": [
    {
      "inputs": [
        {
          "internalType": "string",
          "name": "_tokenName",
          "type": "string"
        },
        {
          "internalType": "string",
          "name": "_tokenSymbol",
          "type": "string"
        },
        {
          "internalType": "uint256",
          "name": "_cost",
          "type": "uint256"
        },
        {
          "internalType": "uint256",
          "name": "_maxSupply",
          "type": "uint256"
        },
        {
          "internalType": "uint256",
          "name": "_maxMintAmountPerTx",
          "type": "uint256"
        },
        {
          "internalType": "string",
          "name": "_hiddenMetadataUri",
          "type": "string"
        }
      ],
      "stateMutability": "nonpayable",
      "type": "constructor"
    },
    {
      "inputs": [],
      "name": "ApprovalCallerNotOwnerNorApproved",
      "type": "error"
    },
    {
      "inputs": [],
      "name": "ApprovalQueryForNonexistentToken",
      "type": "error"
    },
    {
      "inputs": [],
      "name": "ApprovalToCurrentOwner",
      "type": "error"
    },
    {
      "inputs": [],
      "name": "ApproveToCaller",
      "type": "error"
    },
    {
      "inputs": [],
      "name": "BalanceQueryForZeroAddress",
      "type": "error"
    },
    {
      "inputs": [],
      "name": "MintToZeroAddress",
      "type": "error"
    },
    {
      "inputs": [],
      "name": "MintZeroQuantity",
      "type": "error"
    },
    {
      "inputs": [],
      "name": "OwnerQueryForNonexistentToken",
      "type": "error"
    },
    {
      "inputs": [],
      "name": "TransferCallerNotOwnerNorApproved",
      "type": "error"
    },
    {
      "inputs": [],
      "name": "TransferFromIncorrectOwner",
      "type": "error"
    },
    {
      "inputs": [],
      "name": "TransferToNonERC721ReceiverImplementer",
      "type": "error"
    },
    {
      "inputs": [],
      "name": "TransferToZeroAddress",
      "type": "error"
    },
    {
      "anonymous": false,
      "inputs": [
        {
          "indexed": true,
          "internalType": "address",
          "name": "owner",
          "type": "address"
        },
        {
          "indexed": true,
          "internalType": "address",
          "name": "approved",
          "type": "address"
        },
        {
          "indexed": true,
          "internalType": "uint256",
          "name": "tokenId",
          "type": "uint256"
        }
      ],
      "name": "Approval",
      "type": "event"
    },
    {
      "anonymous": false,
      "inputs": [
        {
          "indexed": true,
          "internalType": "address",
          "name": "owner",
          "type": "address"
        },
        {
          "indexed": true,
          "internalType": "address",
          "name": "operator",
          "type": "address"
        },
        {
          "indexed": false,
          "internalType": "bool",
          "name": "approved",
          "type": "bool"
        }
      ],
      "name": "ApprovalForAll",
      "type": "event"
    },
    {
      "anonymous": false,
      "inputs": [
        {
          "indexed": true,
          "internalType": "address",
          "name": "previousOwner",
          "type": "address"
        },
        {
          "indexed": true,
          "internalType": "address",
          "name": "newOwner",
          "type": "address"
        }
      ],
      "name": "OwnershipTransferred",
      "type": "event"
    },
    {
      "anonymous": false,
      "inputs": [
        {
          "indexed": true,
          "internalType": "address",
          "name": "from",
          "type": "address"
        },
        {
          "indexed": true,
          "internalType": "address",
          "name": "to",
          "type": "address"
        },
        {
          "indexed": true,
          "internalType": "uint256",
          "name": "tokenId",
          "type": "uint256"
        }
      ],
      "name": "Transfer",
      "type": "event"
    },
    {
      "inputs": [
        {
          "internalType": "address",
          "name": "to",
          "type": "address"
        },
        {
          "internalType": "uint256",
          "name": "tokenId",
          "type": "uint256"
        }
      ],
      "name": "approve",
      "outputs": [],
      "stateMutability": "nonpayable",
      "type": "function"
    },
    {
      "inputs": [
        {
          "internalType": "uint256",
          "name": "amount",
          "type": "uint256"
        }
      ],
      "name": "backUpReserve",
      "outputs": [],
      "stateMutability": "nonpayable",
      "type": "function"
    },
    {
      "inputs": [
        {
          "internalType": "address",
          "name": "owner",
          "type": "address"
        }
      ],
      "name": "balanceOf",
      "outputs": [
        {
          "internalType": "uint256",
          "name": "",
          "type": "uint256"
        }
      ],
      "stateMutability": "view",
      "type": "function"
    },
    {
      "inputs": [],
      "name": "cost",
      "outputs": [
        {
          "internalType": "uint256",
          "name": "",
          "type": "uint256"
        }
      ],
      "stateMutability": "view",
      "type": "function"
    },
    {
      "inputs": [
        {
          "internalType": "uint256",
          "name": "tokenId",
          "type": "uint256"
        }
      ],
      "name": "getApproved",
      "outputs": [
        {
          "internalType": "address",
          "name": "",
          "type": "address"
        }
      ],
      "stateMutability": "view",
      "type": "function"
    },
    {
      "inputs": [],
      "name": "hiddenMetadataUri",
      "outputs": [
        {
          "internalType": "string",
          "name": "",
          "type": "string"
        }
      ],
      "stateMutability": "view",
      "type": "function"
    },
    {
      "inputs": [
        {
          "internalType": "address",
          "name": "owner",
          "type": "address"
        },
        {
          "internalType": "address",
          "name": "operator",
          "type": "address"
        }
      ],
      "name": "isApprovedForAll",
      "outputs": [
        {
          "internalType": "bool",
          "name": "",
          "type": "bool"
        }
      ],
      "stateMutability": "view",
      "type": "function"
    },
    {
      "inputs": [],
      "name": "mWallet",
      "outputs": [
        {
          "internalType": "address",
          "name": "",
          "type": "address"
        }
      ],
      "stateMutability": "view",
      "type": "function"
    },
    {
      "inputs": [],
      "name": "maxMintAmountPerTx",
      "outputs": [
        {
          "internalType": "uint256",
          "name": "",
          "type": "uint256"
        }
      ],
      "stateMutability": "view",
      "type": "function"
    },
    {
      "inputs": [],
      "name": "maxSupply",
      "outputs": [
        {
          "internalType": "uint256",
          "name": "",
          "type": "uint256"
        }
      ],
      "stateMutability": "view",
      "type": "function"
    },
    {
      "inputs": [],
      "name": "merkleRoot",
      "outputs": [
        {
          "internalType": "bytes32",
          "name": "",
          "type": "bytes32"
        }
      ],
      "stateMutability": "view",
      "type": "function"
    },
    {
      "inputs": [
        {
          "internalType": "uint256",
          "name": "_mintAmount",
          "type": "uint256"
        }
      ],
      "name": "mint",
      "outputs": [],
      "stateMutability": "payable",
      "type": "function"
    },
    {
      "inputs": [
        {
          "internalType": "uint256",
          "name": "_mintAmount",
          "type": "uint256"
        },
        {
          "internalType": "address",
          "name": "_receiver",
          "type": "address"
        }
      ],
      "name": "mintForAddress",
      "outputs": [],
      "stateMutability": "nonpayable",
      "type": "function"
    },
    {
      "inputs": [],
      "name": "name",
      "outputs": [
        {
          "internalType": "string",
          "name": "",
          "type": "string"
        }
      ],
      "stateMutability": "view",
      "type": "function"
    },
    {
      "inputs": [],
      "name": "owner",
      "outputs": [
        {
          "internalType": "address",
          "name": "",
          "type": "address"
        }
      ],
      "stateMutability": "view",
      "type": "function"
    },
    {
      "inputs": [
        {
          "internalType": "uint256",
          "name": "tokenId",
          "type": "uint256"
        }
      ],
      "name": "ownerOf",
      "outputs": [
        {
          "internalType": "address",
          "name": "",
          "type": "address"
        }
      ],
      "stateMutability": "view",
      "type": "function"
    },
    {
      "inputs": [],
      "name": "paused",
      "outputs": [
        {
          "internalType": "bool",
          "name": "",
          "type": "bool"
        }
      ],
      "stateMutability": "view",
      "type": "function"
    },
    {
      "inputs": [],
      "name": "renounceOwnership",
      "outputs": [],
      "stateMutability": "nonpayable",
      "type": "function"
    },
    {
      "inputs": [],
      "name": "reserveAmount",
      "outputs": [
        {
          "internalType": "uint256",
          "name": "",
          "type": "uint256"
        }
      ],
      "stateMutability": "view",
      "type": "function"
    },
    {
      "inputs": [],
      "name": "reserved",
      "outputs": [
        {
          "internalType": "bool",
          "name": "",
          "type": "bool"
        }
      ],
      "stateMutability": "view",
      "type": "function"
    },
    {
      "inputs": [],
      "name": "revealed",
      "outputs": [
        {
          "internalType": "bool",
          "name": "",
          "type": "bool"
        }
      ],
      "stateMutability": "view",
      "type": "function"
    },
    {
      "inputs": [
        {
          "internalType": "address",
          "name": "from",
          "type": "address"
        },
        {
          "internalType": "address",
          "name": "to",
          "type": "address"
        },
        {
          "internalType": "uint256",
          "name": "tokenId",
          "type": "uint256"
        }
      ],
      "name": "safeTransferFrom",
      "outputs": [],
      "stateMutability": "nonpayable",
      "type": "function"
    },
    {
      "inputs": [
        {
          "internalType": "address",
          "name": "from",
          "type": "address"
        },
        {
          "internalType": "address",
          "name": "to",
          "type": "address"
        },
        {
          "internalType": "uint256",
          "name": "tokenId",
          "type": "uint256"
        },
        {
          "internalType": "bytes",
          "name": "_data",
          "type": "bytes"
        }
      ],
      "name": "safeTransferFrom",
      "outputs": [],
      "stateMutability": "nonpayable",
      "type": "function"
    },
    {
      "inputs": [
        {
          "internalType": "address",
          "name": "operator",
          "type": "address"
        },
        {
          "internalType": "bool",
          "name": "approved",
          "type": "bool"
        }
      ],
      "name": "setApprovalForAll",
      "outputs": [],
      "stateMutability": "nonpayable",
      "type": "function"
    },
    {
      "inputs": [
        {
          "internalType": "uint256",
          "name": "_cost",
          "type": "uint256"
        }
      ],
      "name": "setCost",
      "outputs": [],
      "stateMutability": "nonpayable",
      "type": "function"
    },
    {
      "inputs": [
        {
          "internalType": "string",
          "name": "_hiddenMetadataUri",
          "type": "string"
        }
      ],
      "name": "setHiddenMetadataUri",
      "outputs": [],
      "stateMutability": "nonpayable",
      "type": "function"
    },
    {
      "inputs": [
        {
          "internalType": "uint256",
          "name": "_maxMintAmountPerTx",
          "type": "uint256"
        }
      ],
      "name": "setMaxMintAmountPerTx",
      "outputs": [],
      "stateMutability": "nonpayable",
      "type": "function"
    },
    {
      "inputs": [
        {
          "internalType": "bytes32",
          "name": "_merkleRoot",
          "type": "bytes32"
        }
      ],
      "name": "setMerkleRoot",
      "outputs": [],
      "stateMutability": "nonpayable",
      "type": "function"
    },
    {
      "inputs": [
        {
          "internalType": "bool",
          "name": "_state",
          "type": "bool"
        }
      ],
      "name": "setPaused",
      "outputs": [],
      "stateMutability": "nonpayable",
      "type": "function"
    },
    {
      "inputs": [
        {
          "internalType": "bool",
          "name": "_state",
          "type": "bool"
        }
      ],
      "name": "setRevealed",
      "outputs": [],
      "stateMutability": "nonpayable",
      "type": "function"
    },
    {
      "inputs": [
        {
          "internalType": "string",
          "name": "_uriPrefix",
          "type": "string"
        }
      ],
      "name": "setUriPrefix",
      "outputs": [],
      "stateMutability": "nonpayable",
      "type": "function"
    },
    {
      "inputs": [
        {
          "internalType": "string",
          "name": "_uriSuffix",
          "type": "string"
        }
      ],
      "name": "setUriSuffix",
      "outputs": [],
      "stateMutability": "nonpayable",
      "type": "function"
    },
    {
      "inputs": [
        {
          "internalType": "bool",
          "name": "_state",
          "type": "bool"
        }
      ],
      "name": "setWhitelistMintEnabled",
      "outputs": [],
      "stateMutability": "nonpayable",
      "type": "function"
    },
    {
      "inputs": [
        {
          "internalType": "bytes4",
          "name": "interfaceId",
          "type": "bytes4"
        }
      ],
      "name": "supportsInterface",
      "outputs": [
        {
          "internalType": "bool",
          "name": "",
          "type": "bool"
        }
      ],
      "stateMutability": "view",
      "type": "function"
    },
    {
      "inputs": [],
      "name": "symbol",
      "outputs": [
        {
          "internalType": "string",
          "name": "",
          "type": "string"
        }
      ],
      "stateMutability": "view",
      "type": "function"
    },
    {
      "inputs": [],
      "name": "tm1Wallet",
      "outputs": [
        {
          "internalType": "address",
          "name": "",
          "type": "address"
        }
      ],
      "stateMutability": "view",
      "type": "function"
    },
    {
      "inputs": [],
      "name": "tm2Wallet",
      "outputs": [
        {
          "internalType": "address",
          "name": "",
          "type": "address"
        }
      ],
      "stateMutability": "view",
      "type": "function"
    },
    {
      "inputs": [],
      "name": "tm3Wallet",
      "outputs": [
        {
          "internalType": "address",
          "name": "",
          "type": "address"
        }
      ],
      "stateMutability": "view",
      "type": "function"
    },
    {
      "inputs": [],
      "name": "tm4Wallet",
      "outputs": [
        {
          "internalType": "address",
          "name": "",
          "type": "address"
        }
      ],
      "stateMutability": "view",
      "type": "function"
    },
    {
      "inputs": [],
      "name": "tm5Wallet",
      "outputs": [
        {
          "internalType": "address",
          "name": "",
          "type": "address"
        }
      ],
      "stateMutability": "view",
      "type": "function"
    },
    {
      "inputs": [],
      "name": "tm6Wallet",
      "outputs": [
        {
          "internalType": "address",
          "name": "",
          "type": "address"
        }
      ],
      "stateMutability": "view",
      "type": "function"
    },
    {
      "inputs": [
        {
          "internalType": "uint256",
          "name": "_tokenId",
          "type": "uint256"
        }
      ],
      "name": "tokenURI",
      "outputs": [
        {
          "internalType": "string",
          "name": "",
          "type": "string"
        }
      ],
      "stateMutability": "view",
      "type": "function"
    },
    {
      "inputs": [],
      "name": "totalSupply",
      "outputs": [
        {
          "internalType": "uint256",
          "name": "",
          "type": "uint256"
        }
      ],
      "stateMutability": "view",
      "type": "function"
    },
    {
      "inputs": [
        {
          "internalType": "address",
          "name": "from",
          "type": "address"
        },
        {
          "internalType": "address",
          "name": "to",
          "type": "address"
        },
        {
          "internalType": "uint256",
          "name": "tokenId",
          "type": "uint256"
        }
      ],
      "name": "transferFrom",
      "outputs": [],
      "stateMutability": "nonpayable",
      "type": "function"
    },
    {
      "inputs": [
        {
          "internalType": "address",
          "name": "newOwner",
          "type": "address"
        }
      ],
      "name": "transferOwnership",
      "outputs": [],
      "stateMutability": "nonpayable",
      "type": "function"
    },
    {
      "inputs": [],
      "name": "uriPrefix",
      "outputs": [
        {
          "internalType": "string",
          "name": "",
          "type": "string"
        }
      ],
      "stateMutability": "view",
      "type": "function"
    },
    {
      "inputs": [],
      "name": "uriSuffix",
      "outputs": [
        {
          "internalType": "string",
          "name": "",
          "type": "string"
        }
      ],
      "stateMutability": "view",
      "type": "function"
    },
    {
      "inputs": [
        {
          "internalType": "address",
          "name": "_owner",
          "type": "address"
        }
      ],
      "name": "walletOfOwner",
      "outputs": [
        {
          "internalType": "uint256[]",
          "name": "",
          "type": "uint256[]"
        }
      ],
      "stateMutability": "view",
      "type": "function"
    },
    {
      "inputs": [
        {
          "internalType": "address",
          "name": "",
          "type": "address"
        }
      ],
      "name": "whitelistClaimed",
      "outputs": [
        {
          "internalType": "bool",
          "name": "",
          "type": "bool"
        }
      ],
      "stateMutability": "view",
      "type": "function"
    },
    {
      "inputs": [
        {
          "internalType": "uint256",
          "name": "_mintAmount",
          "type": "uint256"
        },
        {
          "internalType": "bytes32[]",
          "name": "_merkleProof",
          "type": "bytes32[]"
        }
      ],
      "name": "whitelistMint",
      "outputs": [],
      "stateMutability": "payable",
      "type": "function"
    },
    {
      "inputs": [],
      "name": "whitelistMintEnabled",
      "outputs": [
        {
          "internalType": "bool",
          "name": "",
          "type": "bool"
        }
      ],
      "stateMutability": "view",
      "type": "function"
    },
    {
      "inputs": [],
      "name": "withdraw",
      "outputs": [],
      "stateMutability": "nonpayable",
      "type": "function"
    }
  ],
  "bytecode": "0x60a06040819052600060808190526200001b91600c9162000553565b5060408051808201909152600580825264173539b7b760d91b60209092019182526200004a91600d9162000553565b506012805463ffffffff1916600117905560dc601355601480546001600160a01b031990811673f5b58aa66258166b47e7dc9e76053129d345efa79081179092556015805482168317905560168054821683179055601780548216831790556018805482168317905560198054821683179055601a80549091169091179055348015620000d657600080fd5b50604051620034bb380380620034bb833981016040819052620000f991620006cf565b8551869086906200011290600290602085019062000553565b5080516200012890600390602084019062000553565b50506001600055506200013b336200017a565b6001600955600f849055601083905560118290556200015a81620001cc565b6200016e336013546200024460201b60201c565b50505050505062000842565b600880546001600160a01b038381166001600160a01b0319831681179093556040519116919082907f8be0079c531659141344cd1fd0a4f28419497f9722a3daafe3b4186f6b6457e090600090a35050565b6008546001600160a01b031633146200022b5760405162461bcd60e51b815260206004820181905260248201527f4f776e61626c653a2063616c6c6572206973206e6f7420746865206f776e6572604482015260640160405180910390fd5b80516200024090600e90602084019062000553565b5050565b620002408282604051806020016040528060008152506200026660201b60201c565b6200027583838360016200027a565b505050565b6000546001600160a01b038516620002a457604051622e076360e81b815260040160405180910390fd5b83620002c35760405163b562e8dd60e01b815260040160405180910390fd5b6001600160a01b038516600081815260056020908152604080832080546001600160801b031981166001600160401b038083168c018116918217680100000000000000006001600160401b031990941690921783900481168c01811690920217909155858452600490925290912080546001600160e01b031916909217600160a01b4290921691909102179055808085018380156200037c57506200037c876001600160a01b03166200044360201b62001bcf1760201c565b15620003fc575b60405182906001600160a01b038916906000906000805160206200349b833981519152908290a46001820191620003c09060009089908862000452565b620003de576040516368d2bf6b60e11b815260040160405180910390fd5b8082141562000383578260005414620003f657600080fd5b62000432565b5b6040516001830192906001600160a01b038916906000906000805160206200349b833981519152908290a480821415620003fd575b506000555050505050565b50505050565b6001600160a01b03163b151590565b604051630a85bd0160e11b81526000906001600160a01b0385169063150b7a0290620004899033908990889088906004016200077c565b602060405180830381600087803b158015620004a457600080fd5b505af1925050508015620004d7575060408051601f3d908101601f19168201909252620004d491810190620007d2565b60015b62000536573d80801562000508576040519150601f19603f3d011682016040523d82523d6000602084013e6200050d565b606091505b5080516200052e576040516368d2bf6b60e11b815260040160405180910390fd5b805181602001fd5b6001600160e01b031916630a85bd0160e11b149050949350505050565b828054620005619062000805565b90600052602060002090601f016020900481019282620005855760008555620005d0565b82601f10620005a057805160ff1916838001178555620005d0565b82800160010185558215620005d0579182015b82811115620005d0578251825591602001919060010190620005b3565b50620005de929150620005e2565b5090565b5b80821115620005de5760008155600101620005e3565b634e487b7160e01b600052604160045260246000fd5b60005b838110156200062c57818101518382015260200162000612565b838111156200043d5750506000910152565b600082601f8301126200065057600080fd5b81516001600160401b03808211156200066d576200066d620005f9565b604051601f8301601f19908116603f01168101908282118183101715620006985762000698620005f9565b81604052838152866020858801011115620006b257600080fd5b620006c58460208301602089016200060f565b9695505050505050565b60008060008060008060c08789031215620006e957600080fd5b86516001600160401b03808211156200070157600080fd5b6200070f8a838b016200063e565b975060208901519150808211156200072657600080fd5b620007348a838b016200063e565b965060408901519550606089015194506080890151935060a08901519150808211156200076057600080fd5b506200076f89828a016200063e565b9150509295509295509295565b600060018060a01b038087168352808616602084015250836040830152608060608301528251806080840152620007bb8160a08501602087016200060f565b601f01601f19169190910160a00195945050505050565b600060208284031215620007e557600080fd5b81516001600160e01b031981168114620007fe57600080fd5b9392505050565b600181811c908216806200081a57607f821691505b602082108114156200083c57634e487b7160e01b600052602260045260246000fd5b50919050565b612c4980620008526000396000f3fe6080604052600436106102ff5760003560e01c80637cb6475911610190578063b767a098116100dc578063db4bec4411610095578063ef53b2f81161006f578063ef53b2f8146108e7578063efbd73f414610907578063f2fde38b14610927578063fe60d12c1461094757600080fd5b8063db4bec441461084e578063e0a808531461087e578063e985e9c51461089e57600080fd5b8063b767a098146107a5578063b88d4fde146107c5578063c87b56dd146107e5578063c87c8c5814610805578063d2cab05614610825578063d5abeb011461083857600080fd5b806395b78c9f11610149578063a22cb46511610123578063a22cb46514610730578063a45ba8e714610750578063a6da66a314610765578063b071401b1461078557600080fd5b806395b78c9f146106e857806395d89b4114610708578063a0712d681461071d57600080fd5b80637cb64759146106345780637ec4a659146106545780638da42d0f146106745780638da5cb5b1461069457806394354fd0146106b257806395363514146106c857600080fd5b806344a0d68a1161024f5780635c975abb116102085780636caede3d116101e25780636caede3d146105c057806370a08231146105df578063715018a6146105ff5780637ba242cf1461061457600080fd5b80635c975abb1461057157806362b99ad41461058b5780636352211e146105a057600080fd5b806344a0d68a146104c65780634b09b72a146104e65780634fdd43cb146104fc57806350e9aee31461051c578063518302271461053c5780635503a0e81461055c57600080fd5b806316c38b3c116102bc5780632eb4a7ab116102965780632eb4a7ab1461044e5780633ccfd60b1461046457806342842e0e14610479578063438b63001461049957600080fd5b806316c38b3c146103f957806318160ddd1461041957806323b872dd1461042e57600080fd5b806301ffc9a71461030457806306fdde0314610339578063081812fc1461035b578063095ea7b31461039357806313faede6146103b557806316ba10e0146103d9575b600080fd5b34801561031057600080fd5b5061032461031f366004612534565b610968565b60405190151581526020015b60405180910390f35b34801561034557600080fd5b5061034e6109ba565b60405161033091906125a9565b34801561036757600080fd5b5061037b6103763660046125bc565b610a4c565b6040516001600160a01b039091168152602001610330565b34801561039f57600080fd5b506103b36103ae3660046125f1565b610a90565b005b3480156103c157600080fd5b506103cb600f5481565b604051908152602001610330565b3480156103e557600080fd5b506103b36103f43660046126a6565b610b1e565b34801561040557600080fd5b506103b36104143660046126fe565b610b68565b34801561042557600080fd5b506103cb610ba5565b34801561043a57600080fd5b506103b3610449366004612719565b610bb3565b34801561045a57600080fd5b506103cb600a5481565b34801561047057600080fd5b506103b3610bbe565b34801561048557600080fd5b506103b3610494366004612719565b610ffd565b3480156104a557600080fd5b506104b96104b4366004612755565b611018565b6040516103309190612770565b3480156104d257600080fd5b506103b36104e13660046125bc565b61115f565b3480156104f257600080fd5b506103cb60135481565b34801561050857600080fd5b506103b36105173660046126a6565b61118e565b34801561052857600080fd5b50601a5461037b906001600160a01b031681565b34801561054857600080fd5b506012546103249062010000900460ff1681565b34801561056857600080fd5b5061034e6111cb565b34801561057d57600080fd5b506012546103249060ff1681565b34801561059757600080fd5b5061034e611259565b3480156105ac57600080fd5b5061037b6105bb3660046125bc565b611266565b3480156105cc57600080fd5b5060125461032490610100900460ff1681565b3480156105eb57600080fd5b506103cb6105fa366004612755565b611278565b34801561060b57600080fd5b506103b36112c6565b34801561062057600080fd5b5060155461037b906001600160a01b031681565b34801561064057600080fd5b506103b361064f3660046125bc565b6112fc565b34801561066057600080fd5b506103b361066f3660046126a6565b61132b565b34801561068057600080fd5b5060175461037b906001600160a01b031681565b3480156106a057600080fd5b506008546001600160a01b031661037b565b3480156106be57600080fd5b506103cb60115481565b3480156106d457600080fd5b5060145461037b906001600160a01b031681565b3480156106f457600080fd5b5060185461037b906001600160a01b031681565b34801561071457600080fd5b5061034e611368565b6103b361072b3660046125bc565b611377565b34801561073c57600080fd5b506103b361074b3660046127b4565b61148b565b34801561075c57600080fd5b5061034e611521565b34801561077157600080fd5b5060165461037b906001600160a01b031681565b34801561079157600080fd5b506103b36107a03660046125bc565b61152e565b3480156107b157600080fd5b506103b36107c03660046126fe565b61155d565b3480156107d157600080fd5b506103b36107e03660046127e7565b6115a1565b3480156107f157600080fd5b5061034e6108003660046125bc565b6115f2565b34801561081157600080fd5b506103b36108203660046125bc565b611762565b6103b3610833366004612862565b6117fb565b34801561084457600080fd5b506103cb60105481565b34801561085a57600080fd5b50610324610869366004612755565b600b6020526000908152604090205460ff1681565b34801561088a57600080fd5b506103b36108993660046126fe565b611a57565b3480156108aa57600080fd5b506103246108b93660046128e0565b6001600160a01b03918216600090815260076020908152604080832093909416825291909152205460ff1690565b3480156108f357600080fd5b5060195461037b906001600160a01b031681565b34801561091357600080fd5b506103b361092236600461290a565b611a9d565b34801561093357600080fd5b506103b3610942366004612755565b611b34565b34801561095357600080fd5b50601254610324906301000000900460ff1681565b60006001600160e01b031982166380ac58cd60e01b148061099957506001600160e01b03198216635b5e139f60e01b145b806109b457506301ffc9a760e01b6001600160e01b03198316145b92915050565b6060600280546109c99061292d565b80601f01602080910402602001604051908101604052809291908181526020018280546109f59061292d565b8015610a425780601f10610a1757610100808354040283529160200191610a42565b820191906000526020600020905b815481529060010190602001808311610a2557829003601f168201915b5050505050905090565b6000610a5782611bde565b610a74576040516333d1c03960e21b815260040160405180910390fd5b506000908152600660205260409020546001600160a01b031690565b6000610a9b82611266565b9050806001600160a01b0316836001600160a01b03161415610ad05760405163250fdee360e21b815260040160405180910390fd5b336001600160a01b03821614801590610af05750610aee81336108b9565b155b15610b0e576040516367d9dca160e11b815260040160405180910390fd5b610b19838383611c17565b505050565b6008546001600160a01b03163314610b515760405162461bcd60e51b8152600401610b4890612968565b60405180910390fd5b8051610b6490600d906020840190612485565b5050565b6008546001600160a01b03163314610b925760405162461bcd60e51b8152600401610b4890612968565b6012805460ff1916911515919091179055565b600154600054036000190190565b610b19838383611c73565b6008546001600160a01b03163314610be85760405162461bcd60e51b8152600401610b4890612968565b60026009541415610c3b5760405162461bcd60e51b815260206004820152601f60248201527f5265656e7472616e637947756172643a207265656e7472616e742063616c6c006044820152606401610b48565b600260095560145447906000906001600160a01b03166064610c5e8460286129b3565b610c6891906129e8565b604051600081818185875af1925050503d8060008114610ca4576040519150601f19603f3d011682016040523d82523d6000602084013e610ca9565b606091505b5050905080610cca5760405162461bcd60e51b8152600401610b48906129fc565b6015546001600160a01b03166064610ce384600a6129b3565b610ced91906129e8565b604051600081818185875af1925050503d8060008114610d29576040519150601f19603f3d011682016040523d82523d6000602084013e610d2e565b606091505b50508091505080610d515760405162461bcd60e51b8152600401610b48906129fc565b6017546001600160a01b03166064610d6a84600a6129b3565b610d7491906129e8565b604051600081818185875af1925050503d8060008114610db0576040519150601f19603f3d011682016040523d82523d6000602084013e610db5565b606091505b50508091505080610dd85760405162461bcd60e51b8152600401610b48906129fc565b6016546001600160a01b03166064610df184600a6129b3565b610dfb91906129e8565b604051600081818185875af1925050503d8060008114610e37576040519150601f19603f3d011682016040523d82523d6000602084013e610e3c565b606091505b50508091505080610e5f5760405162461bcd60e51b8152600401610b48906129fc565b6018546001600160a01b03166064610e7884600a6129b3565b610e8291906129e8565b604051600081818185875af1925050503d8060008114610ebe576040519150601f19603f3d011682016040523d82523d6000602084013e610ec3565b606091505b50508091505080610ee65760405162461bcd60e51b8152600401610b48906129fc565b6019546001600160a01b03166064610eff84600a6129b3565b610f0991906129e8565b604051600081818185875af1925050503d8060008114610f45576040519150601f19603f3d011682016040523d82523d6000602084013e610f4a565b606091505b50508091505080610f6d5760405162461bcd60e51b8152600401610b48906129fc565b601a546001600160a01b03166064610f8684600a6129b3565b610f9091906129e8565b604051600081818185875af1925050503d8060008114610fcc576040519150601f19603f3d011682016040523d82523d6000602084013e610fd1565b606091505b50508091505080610ff45760405162461bcd60e51b8152600401610b48906129fc565b50506001600955565b610b19838383604051806020016040528060008152506115a1565b6060600061102583611278565b90506000816001600160401b038111156110415761104161261b565b60405190808252806020026020018201604052801561106a578160200160208202803683370190505b50905060016000805b848210801561108457506010548311155b1561115457600083815260046020908152604091829020825160608101845290546001600160a01b0381168252600160a01b81046001600160401b031692820192909252600160e01b90910460ff1615801592820183905290916110f1575080516001600160a01b031615155b156110fb57805191505b876001600160a01b0316826001600160a01b03161415611141578385848151811061112857611128612a25565b60209081029190910101528261113d81612a3b565b9350505b8361114b81612a3b565b94505050611073565b509195945050505050565b6008546001600160a01b031633146111895760405162461bcd60e51b8152600401610b4890612968565b600f55565b6008546001600160a01b031633146111b85760405162461bcd60e51b8152600401610b4890612968565b8051610b6490600e906020840190612485565b600d80546111d89061292d565b80601f01602080910402602001604051908101604052809291908181526020018280546112049061292d565b80156112515780601f1061122657610100808354040283529160200191611251565b820191906000526020600020905b81548152906001019060200180831161123457829003601f168201915b505050505081565b600c80546111d89061292d565b600061127182611e87565b5192915050565b60006001600160a01b0382166112a1576040516323d3ad8160e21b815260040160405180910390fd5b506001600160a01b03166000908152600560205260409020546001600160401b031690565b6008546001600160a01b031633146112f05760405162461bcd60e51b8152600401610b4890612968565b6112fa6000611fae565b565b6008546001600160a01b031633146113265760405162461bcd60e51b8152600401610b4890612968565b600a55565b6008546001600160a01b031633146113555760405162461bcd60e51b8152600401610b4890612968565b8051610b6490600c906020840190612485565b6060600380546109c99061292d565b8060008111801561138a57506011548111155b6113a65760405162461bcd60e51b8152600401610b4890612a56565b601054816113b2610ba5565b6113bc9190612a84565b11156113da5760405162461bcd60e51b8152600401610b4890612a9c565b8180600f546113e991906129b3565b34101561142e5760405162461bcd60e51b8152602060048201526013602482015272496e73756666696369656e742066756e64732160681b6044820152606401610b48565b60125460ff16156114815760405162461bcd60e51b815260206004820152601760248201527f54686520636f6e747261637420697320706175736564210000000000000000006044820152606401610b48565b610b193384612000565b6001600160a01b0382163314156114b55760405163b06307db60e01b815260040160405180910390fd5b3360008181526007602090815260408083206001600160a01b03871680855290835292819020805460ff191686151590811790915590519081529192917f17307eab39ab6107e8899845ad3d59bd9653f200f220920489ca2b5937696c31910160405180910390a35050565b600e80546111d89061292d565b6008546001600160a01b031633146115585760405162461bcd60e51b8152600401610b4890612968565b601155565b6008546001600160a01b031633146115875760405162461bcd60e51b8152600401610b4890612968565b601280549115156101000261ff0019909216919091179055565b6115ac848484611c73565b6001600160a01b0383163b151580156115ce57506115cc8484848461201a565b155b156115ec576040516368d2bf6b60e11b815260040160405180910390fd5b50505050565b60606115fd82611bde565b6116615760405162461bcd60e51b815260206004820152602f60248201527f4552433732314d657461646174613a2055524920717565727920666f72206e6f60448201526e3732bc34b9ba32b73a103a37b5b2b760891b6064820152608401610b48565b60125462010000900460ff1661170357600e805461167e9061292d565b80601f01602080910402602001604051908101604052809291908181526020018280546116aa9061292d565b80156116f75780601f106116cc576101008083540402835291602001916116f7565b820191906000526020600020905b8154815290600101906020018083116116da57829003601f168201915b50505050509050919050565b600061170d612112565b9050600081511161172d576040518060200160405280600081525061175b565b8061173784612121565b600d60405160200161174b93929190612aca565b6040516020818303038152906040525b9392505050565b60135460008111801561177757506011548111155b6117935760405162461bcd60e51b8152600401610b4890612a56565b6010548161179f610ba5565b6117a99190612a84565b11156117c75760405162461bcd60e51b8152600401610b4890612a9c565b6008546001600160a01b031633146117f15760405162461bcd60e51b8152600401610b4890612968565b610b643383612000565b8260008111801561180e57506011548111155b61182a5760405162461bcd60e51b8152600401610b4890612a56565b60105481611836610ba5565b6118409190612a84565b111561185e5760405162461bcd60e51b8152600401610b4890612a9c565b8380600f5461186d91906129b3565b3410156118b25760405162461bcd60e51b8152602060048201526013602482015272496e73756666696369656e742066756e64732160681b6044820152606401610b48565b601254610100900460ff166119145760405162461bcd60e51b815260206004820152602260248201527f5468652077686974656c6973742073616c65206973206e6f7420656e61626c65604482015261642160f01b6064820152608401610b48565b336000908152600b602052604090205460ff16156119745760405162461bcd60e51b815260206004820152601860248201527f4164647265737320616c726561647920636c61696d65642100000000000000006044820152606401610b48565b6040516bffffffffffffffffffffffff193360601b1660208201526000906034016040516020818303038152906040528051906020012090506119ee85858080602002602001604051908101604052809392919081815260200183836020028082843760009201919091525050600a54915084905061221e565b611a2b5760405162461bcd60e51b815260206004820152600e60248201526d496e76616c69642070726f6f662160901b6044820152606401610b48565b336000818152600b60205260409020805460ff19166001179055611a4f9087612000565b505050505050565b6008546001600160a01b03163314611a815760405162461bcd60e51b8152600401610b4890612968565b60128054911515620100000262ff000019909216919091179055565b81600081118015611ab057506011548111155b611acc5760405162461bcd60e51b8152600401610b4890612a56565b60105481611ad8610ba5565b611ae29190612a84565b1115611b005760405162461bcd60e51b8152600401610b4890612a9c565b6008546001600160a01b03163314611b2a5760405162461bcd60e51b8152600401610b4890612968565b610b198284612000565b6008546001600160a01b03163314611b5e5760405162461bcd60e51b8152600401610b4890612968565b6001600160a01b038116611bc35760405162461bcd60e51b815260206004820152602660248201527f4f776e61626c653a206e6577206f776e657220697320746865207a65726f206160448201526564647265737360d01b6064820152608401610b48565b611bcc81611fae565b50565b6001600160a01b03163b151590565b600081600111158015611bf2575060005482105b80156109b4575050600090815260046020526040902054600160e01b900460ff161590565b60008281526006602052604080822080546001600160a01b0319166001600160a01b0387811691821790925591518593918516917f8c5be1e5ebec7d5bd14f71427d1e84f3dd0314c0f7b2291e5b200ac8c7c3b92591a4505050565b6000611c7e82611e87565b80519091506000906001600160a01b0316336001600160a01b03161480611cac57508151611cac90336108b9565b80611cc7575033611cbc84610a4c565b6001600160a01b0316145b905080611ce757604051632ce44b5f60e11b815260040160405180910390fd5b846001600160a01b031682600001516001600160a01b031614611d1c5760405162a1148160e81b815260040160405180910390fd5b6001600160a01b038416611d4357604051633a954ecd60e21b815260040160405180910390fd5b611d536000848460000151611c17565b6001600160a01b038581166000908152600560209081526040808320805467ffffffffffffffff198082166001600160401b0392831660001901831617909255898616808652838620805493841693831660019081018416949094179055898652600490945282852080546001600160e01b031916909417600160a01b429092169190910217909255908601808352912054909116611e3d57600054811015611e3d57825160008281526004602090815260409091208054918601516001600160401b0316600160a01b026001600160e01b03199092166001600160a01b03909316929092171790555b5082846001600160a01b0316866001600160a01b03167fddf252ad1be2c89b69c2b068fc378daa952ba7f163c4a11628f55a4df523b3ef60405160405180910390a45b5050505050565b60408051606081018252600080825260208201819052918101919091528180600111158015611eb7575060005481105b15611f9557600081815260046020908152604091829020825160608101845290546001600160a01b0381168252600160a01b81046001600160401b031692820192909252600160e01b90910460ff16151591810182905290611f935780516001600160a01b031615611f2a579392505050565b5060001901600081815260046020908152604091829020825160608101845290546001600160a01b038116808352600160a01b82046001600160401b031693830193909352600160e01b900460ff1615159281019290925215611f8e579392505050565b611f2a565b505b604051636f96cda160e11b815260040160405180910390fd5b600880546001600160a01b038381166001600160a01b0319831681179093556040519116919082907f8be0079c531659141344cd1fd0a4f28419497f9722a3daafe3b4186f6b6457e090600090a35050565b610b64828260405180602001604052806000815250612234565b604051630a85bd0160e11b81526000906001600160a01b0385169063150b7a029061204f903390899088908890600401612b8e565b602060405180830381600087803b15801561206957600080fd5b505af1925050508015612099575060408051601f3d908101601f1916820190925261209691810190612bcb565b60015b6120f4573d8080156120c7576040519150601f19603f3d011682016040523d82523d6000602084013e6120cc565b606091505b5080516120ec576040516368d2bf6b60e11b815260040160405180910390fd5b805181602001fd5b6001600160e01b031916630a85bd0160e11b1490505b949350505050565b6060600c80546109c99061292d565b6060816121455750506040805180820190915260018152600360fc1b602082015290565b8160005b811561216f578061215981612a3b565b91506121689050600a836129e8565b9150612149565b6000816001600160401b038111156121895761218961261b565b6040519080825280601f01601f1916602001820160405280156121b3576020820181803683370190505b5090505b841561210a576121c8600183612be8565b91506121d5600a86612bff565b6121e0906030612a84565b60f81b8183815181106121f5576121f5612a25565b60200101906001600160f81b031916908160001a905350612217600a866129e8565b94506121b7565b60008261222b8584612241565b14949350505050565b610b1983838360016122b5565b600081815b84518110156122ad57600085828151811061226357612263612a25565b60200260200101519050808311612289576000838152602082905260409020925061229a565b600081815260208490526040902092505b50806122a581612a3b565b915050612246565b509392505050565b6000546001600160a01b0385166122de57604051622e076360e81b815260040160405180910390fd5b836122fc5760405163b562e8dd60e01b815260040160405180910390fd5b6001600160a01b038516600081815260056020908152604080832080546fffffffffffffffffffffffffffffffff1981166001600160401b038083168c0181169182176801000000000000000067ffffffffffffffff1990941690921783900481168c01811690920217909155858452600490925290912080546001600160e01b031916909217600160a01b4290921691909102179055808085018380156123ad57506001600160a01b0387163b15155b15612436575b60405182906001600160a01b038916906000907fddf252ad1be2c89b69c2b068fc378daa952ba7f163c4a11628f55a4df523b3ef908290a46123fe600088848060010195508861201a565b61241b576040516368d2bf6b60e11b815260040160405180910390fd5b808214156123b357826000541461243157600080fd5b61247c565b5b6040516001830192906001600160a01b038916906000907fddf252ad1be2c89b69c2b068fc378daa952ba7f163c4a11628f55a4df523b3ef908290a480821415612437575b50600055611e80565b8280546124919061292d565b90600052602060002090601f0160209004810192826124b357600085556124f9565b82601f106124cc57805160ff19168380011785556124f9565b828001600101855582156124f9579182015b828111156124f95782518255916020019190600101906124de565b50612505929150612509565b5090565b5b80821115612505576000815560010161250a565b6001600160e01b031981168114611bcc57600080fd5b60006020828403121561254657600080fd5b813561175b8161251e565b60005b8381101561256c578181015183820152602001612554565b838111156115ec5750506000910152565b60008151808452612595816020860160208601612551565b601f01601f19169290920160200192915050565b60208152600061175b602083018461257d565b6000602082840312156125ce57600080fd5b5035919050565b80356001600160a01b03811681146125ec57600080fd5b919050565b6000806040838503121561260457600080fd5b61260d836125d5565b946020939093013593505050565b634e487b7160e01b600052604160045260246000fd5b60006001600160401b038084111561264b5761264b61261b565b604051601f8501601f19908116603f011681019082821181831017156126735761267361261b565b8160405280935085815286868601111561268c57600080fd5b858560208301376000602087830101525050509392505050565b6000602082840312156126b857600080fd5b81356001600160401b038111156126ce57600080fd5b8201601f810184136126df57600080fd5b61210a84823560208401612631565b803580151581146125ec57600080fd5b60006020828403121561271057600080fd5b61175b826126ee565b60008060006060848603121561272e57600080fd5b612737846125d5565b9250612745602085016125d5565b9150604084013590509250925092565b60006020828403121561276757600080fd5b61175b826125d5565b6020808252825182820181905260009190848201906040850190845b818110156127a85783518352928401929184019160010161278c565b50909695505050505050565b600080604083850312156127c757600080fd5b6127d0836125d5565b91506127de602084016126ee565b90509250929050565b600080600080608085870312156127fd57600080fd5b612806856125d5565b9350612814602086016125d5565b92506040850135915060608501356001600160401b0381111561283657600080fd5b8501601f8101871361284757600080fd5b61285687823560208401612631565b91505092959194509250565b60008060006040848603121561287757600080fd5b8335925060208401356001600160401b038082111561289557600080fd5b818601915086601f8301126128a957600080fd5b8135818111156128b857600080fd5b8760208260051b85010111156128cd57600080fd5b6020830194508093505050509250925092565b600080604083850312156128f357600080fd5b6128fc836125d5565b91506127de602084016125d5565b6000806040838503121561291d57600080fd5b823591506127de602084016125d5565b600181811c9082168061294157607f821691505b6020821081141561296257634e487b7160e01b600052602260045260246000fd5b50919050565b6020808252818101527f4f776e61626c653a2063616c6c6572206973206e6f7420746865206f776e6572604082015260600190565b634e487b7160e01b600052601160045260246000fd5b60008160001904831182151516156129cd576129cd61299d565b500290565b634e487b7160e01b600052601260045260246000fd5b6000826129f7576129f76129d2565b500490565b6020808252600f908201526e1d1c985b9cd9995c8819985a5b1959608a1b604082015260600190565b634e487b7160e01b600052603260045260246000fd5b6000600019821415612a4f57612a4f61299d565b5060010190565b602080825260149082015273496e76616c6964206d696e7420616d6f756e742160601b604082015260600190565b60008219821115612a9757612a9761299d565b500190565b6020808252601490820152734d617820737570706c792065786365656465642160601b604082015260600190565b600084516020612add8285838a01612551565b855191840191612af08184848a01612551565b8554920191600090600181811c9080831680612b0d57607f831692505b858310811415612b2b57634e487b7160e01b85526022600452602485fd5b808015612b3f5760018114612b5057612b7d565b60ff19851688528388019550612b7d565b60008b81526020902060005b85811015612b755781548a820152908401908801612b5c565b505083880195505b50939b9a5050505050505050505050565b6001600160a01b0385811682528416602082015260408101839052608060608201819052600090612bc19083018461257d565b9695505050505050565b600060208284031215612bdd57600080fd5b815161175b8161251e565b600082821015612bfa57612bfa61299d565b500390565b600082612c0e57612c0e6129d2565b50069056fea264697066735822122060419befd42e3c7053c35a2fb4c3d236b0a18b9629cf4e2c833d509545ddb6c364736f6c63430008090033ddf252ad1be2c89b69c2b068fc378daa952ba7f163c4a11628f55a4df523b3ef",
  "linkReferences": {},
  "deployedLinkReferences": {}
}